{
  "abi": [
    {
      "inputs": [
        {
          "internalType": "address",
          "name": "_address",
          "type": "address"
        },
        {
          "internalType": "string",
          "name": "_username",
          "type": "string"
        },
        {
          "internalType": "string",
          "name": "_avatar",
          "type": "string"
        },
        {
          "internalType": "string",
          "name": "_banner",
          "type": "string"
        },
        {
          "internalType": "string",
          "name": "_bio",
          "type": "string"
        },
        {
          "internalType": "string[][]",
          "name": "_links",
          "type": "string[][]"
        }
      ],
      "stateMutability": "nonpayable",
      "type": "constructor"
    },
    {
      "anonymous": false,
      "inputs": [
        {
          "indexed": true,
          "internalType": "address",
          "name": "owner",
          "type": "address"
        },
        {
          "indexed": true,
          "internalType": "address",
          "name": "approved",
          "type": "address"
        },
        {
          "indexed": true,
          "internalType": "uint256",
          "name": "tokenId",
          "type": "uint256"
        }
      ],
      "name": "Approval",
      "type": "event"
    },
    {
      "anonymous": false,
      "inputs": [
        {
          "indexed": true,
          "internalType": "address",
          "name": "owner",
          "type": "address"
        },
        {
          "indexed": true,
          "internalType": "address",
          "name": "operator",
          "type": "address"
        },
        {
          "indexed": false,
          "internalType": "bool",
          "name": "approved",
          "type": "bool"
        }
      ],
      "name": "ApprovalForAll",
      "type": "event"
    },
    {
      "anonymous": false,
      "inputs": [
        {
          "indexed": false,
          "internalType": "address",
          "name": "newKing",
          "type": "address"
        }
      ],
      "name": "NewKing",
      "type": "event"
    },
    {
      "anonymous": false,
      "inputs": [
        {
          "indexed": false,
          "internalType": "address",
          "name": "newQueen",
          "type": "address"
        }
      ],
      "name": "NewQueen",
      "type": "event"
    },
    {
      "anonymous": false,
      "inputs": [
        {
          "indexed": true,
          "internalType": "address",
          "name": "from",
          "type": "address"
        },
        {
          "indexed": true,
          "internalType": "address",
          "name": "to",
          "type": "address"
        },
        {
          "indexed": true,
          "internalType": "uint256",
          "name": "tokenId",
          "type": "uint256"
        }
      ],
      "name": "Transfer",
      "type": "event"
    },
    {
      "inputs": [
        {
          "internalType": "address",
          "name": "newKing",
          "type": "address"
        }
      ],
      "name": "annointKing",
      "outputs": [],
      "stateMutability": "nonpayable",
      "type": "function"
    },
    {
      "inputs": [
        {
          "internalType": "address",
          "name": "newQueen",
          "type": "address"
        }
      ],
      "name": "annointQueen",
      "outputs": [],
      "stateMutability": "nonpayable",
      "type": "function"
    },
    {
      "inputs": [
        {
          "internalType": "address",
          "name": "to",
          "type": "address"
        },
        {
          "internalType": "uint256",
          "name": "tokenId",
          "type": "uint256"
        }
      ],
      "name": "approve",
      "outputs": [],
      "stateMutability": "nonpayable",
      "type": "function"
    },
    {
      "inputs": [],
      "name": "avatar",
      "outputs": [
        {
          "internalType": "string",
          "name": "",
          "type": "string"
        }
      ],
      "stateMutability": "view",
      "type": "function"
    },
    {
      "inputs": [
        {
          "internalType": "address",
          "name": "owner",
          "type": "address"
        }
      ],
      "name": "balanceOf",
      "outputs": [
        {
          "internalType": "uint256",
          "name": "",
          "type": "uint256"
        }
      ],
      "stateMutability": "view",
      "type": "function"
    },
    {
      "inputs": [],
      "name": "banner",
      "outputs": [
        {
          "internalType": "string",
          "name": "",
          "type": "string"
        }
      ],
      "stateMutability": "view",
      "type": "function"
    },
    {
      "inputs": [],
      "name": "bio",
      "outputs": [
        {
          "internalType": "string",
          "name": "",
          "type": "string"
        }
      ],
      "stateMutability": "view",
      "type": "function"
    },
    {
      "inputs": [
        {
          "internalType": "address",
          "name": "unfollower",
          "type": "address"
        }
      ],
      "name": "burn",
      "outputs": [],
      "stateMutability": "nonpayable",
      "type": "function"
    },
    {
      "inputs": [
        {
          "internalType": "string",
          "name": "_username",
          "type": "string"
        },
        {
          "internalType": "string",
          "name": "_avatar",
          "type": "string"
        },
        {
          "internalType": "string",
          "name": "_banner",
          "type": "string"
        },
        {
          "internalType": "string",
          "name": "_bio",
          "type": "string"
        },
        {
          "internalType": "string[][]",
          "name": "_links",
          "type": "string[][]"
        }
      ],
      "name": "changeProfile",
      "outputs": [],
      "stateMutability": "nonpayable",
      "type": "function"
    },
    {
      "inputs": [
        {
          "internalType": "uint256",
          "name": "tokenId",
          "type": "uint256"
        }
      ],
      "name": "getApproved",
      "outputs": [
        {
          "internalType": "address",
          "name": "",
          "type": "address"
        }
      ],
      "stateMutability": "view",
      "type": "function"
    },
    {
      "inputs": [],
      "name": "id",
      "outputs": [
        {
          "internalType": "uint256",
          "name": "",
          "type": "uint256"
        }
      ],
      "stateMutability": "view",
      "type": "function"
    },
    {
      "inputs": [],
      "name": "incrementID",
      "outputs": [],
      "stateMutability": "nonpayable",
      "type": "function"
    },
    {
      "inputs": [
        {
          "internalType": "address",
          "name": "owner",
          "type": "address"
        },
        {
          "internalType": "address",
          "name": "operator",
          "type": "address"
        }
      ],
      "name": "isApprovedForAll",
      "outputs": [
        {
          "internalType": "bool",
          "name": "",
          "type": "bool"
        }
      ],
      "stateMutability": "view",
      "type": "function"
    },
    {
      "inputs": [],
      "name": "king",
      "outputs": [
        {
          "internalType": "address",
          "name": "",
          "type": "address"
        }
      ],
      "stateMutability": "view",
      "type": "function"
    },
    {
      "inputs": [
        {
          "internalType": "uint256",
          "name": "",
          "type": "uint256"
        },
        {
          "internalType": "uint256",
          "name": "",
          "type": "uint256"
        }
      ],
      "name": "links",
      "outputs": [
        {
          "internalType": "string",
          "name": "",
          "type": "string"
        }
      ],
      "stateMutability": "view",
      "type": "function"
    },
    {
      "inputs": [
        {
          "internalType": "address",
          "name": "to",
          "type": "address"
        },
        {
          "internalType": "string",
          "name": "metadata",
          "type": "string"
        }
      ],
      "name": "mint",
      "outputs": [],
      "stateMutability": "nonpayable",
      "type": "function"
    },
    {
      "inputs": [],
      "name": "name",
      "outputs": [
        {
          "internalType": "string",
          "name": "",
          "type": "string"
        }
      ],
      "stateMutability": "view",
      "type": "function"
    },
    {
      "inputs": [
        {
          "internalType": "address",
          "name": "",
          "type": "address"
        }
      ],
      "name": "owner",
      "outputs": [
        {
          "internalType": "uint256",
          "name": "",
          "type": "uint256"
        }
      ],
      "stateMutability": "view",
      "type": "function"
    },
    {
      "inputs": [
        {
          "internalType": "uint256",
          "name": "tokenId",
          "type": "uint256"
        }
      ],
      "name": "ownerOf",
      "outputs": [
        {
          "internalType": "address",
          "name": "",
          "type": "address"
        }
      ],
      "stateMutability": "view",
      "type": "function"
    },
    {
      "inputs": [],
      "name": "queen",
      "outputs": [
        {
          "internalType": "address",
          "name": "",
          "type": "address"
        }
      ],
      "stateMutability": "view",
      "type": "function"
    },
    {
      "inputs": [
        {
          "internalType": "address",
          "name": "from",
          "type": "address"
        },
        {
          "internalType": "address",
          "name": "to",
          "type": "address"
        },
        {
          "internalType": "uint256",
          "name": "tokenId",
          "type": "uint256"
        }
      ],
      "name": "safeTransferFrom",
      "outputs": [],
      "stateMutability": "nonpayable",
      "type": "function"
    },
    {
      "inputs": [
        {
          "internalType": "address",
          "name": "from",
          "type": "address"
        },
        {
          "internalType": "address",
          "name": "to",
          "type": "address"
        },
        {
          "internalType": "uint256",
          "name": "tokenId",
          "type": "uint256"
        },
        {
          "internalType": "bytes",
          "name": "data",
          "type": "bytes"
        }
      ],
      "name": "safeTransferFrom",
      "outputs": [],
      "stateMutability": "nonpayable",
      "type": "function"
    },
    {
      "inputs": [
        {
          "internalType": "address",
          "name": "operator",
          "type": "address"
        },
        {
          "internalType": "bool",
          "name": "approved",
          "type": "bool"
        }
      ],
      "name": "setApprovalForAll",
      "outputs": [],
      "stateMutability": "nonpayable",
      "type": "function"
    },
    {
      "inputs": [
        {
          "internalType": "bytes4",
          "name": "interfaceId",
          "type": "bytes4"
        }
      ],
      "name": "supportsInterface",
      "outputs": [
        {
          "internalType": "bool",
          "name": "",
          "type": "bool"
        }
      ],
      "stateMutability": "view",
      "type": "function"
    },
    {
      "inputs": [],
      "name": "symbol",
      "outputs": [
        {
          "internalType": "string",
          "name": "",
          "type": "string"
        }
      ],
      "stateMutability": "view",
      "type": "function"
    },
    {
      "inputs": [
        {
          "internalType": "uint256",
          "name": "tokenId",
          "type": "uint256"
        }
      ],
      "name": "tokenURI",
      "outputs": [
        {
          "internalType": "string",
          "name": "",
          "type": "string"
        }
      ],
      "stateMutability": "view",
      "type": "function"
    },
    {
      "inputs": [
        {
          "internalType": "address",
          "name": "from",
          "type": "address"
        },
        {
          "internalType": "address",
          "name": "to",
          "type": "address"
        },
        {
          "internalType": "uint256",
          "name": "tokenId",
          "type": "uint256"
        }
      ],
      "name": "transferFrom",
      "outputs": [],
      "stateMutability": "nonpayable",
      "type": "function"
    },
    {
      "inputs": [],
      "name": "viewLinks",
      "outputs": [
        {
          "internalType": "string[][]",
          "name": "",
          "type": "string[][]"
        }
      ],
      "stateMutability": "view",
      "type": "function"
    },
    {
      "inputs": [],
      "name": "viewProfile",
      "outputs": [
        {
          "internalType": "string[4]",
          "name": "",
          "type": "string[4]"
        }
      ],
      "stateMutability": "view",
      "type": "function"
    }
  ],
  "bytecode": {
    "object": "0x60806040526001600a553480156200001657600080fd5b5060405162002d8538038062002d85833981016040819052620000399162000511565b60408051808201909152600d81526c50686173652050726f66696c6560981b602082015286908660006200006e838262000693565b5060016200007d828262000693565b505060078054336001600160a01b03199182168117909255600880549091166001600160a01b0385161790556040519081527f6cd8d790853c0b38da6686db770a36ba2c38653bf63c343f3bb93c738c2f89da915060200160405180910390a16040516001600160a01b03821681527f4f83afdba2ebb153ebc1defcc8dc7ba9fc5ad01c30203863693b05807712a62b9060200160405180910390a150600b62000128858262000693565b50600c62000137848262000693565b50600d62000146838262000693565b5080516200015c90600e90602084019062000169565b505050505050506200075f565b828054828255906000526020600020908101928215620001bb579160200282015b82811115620001bb5782518051620001aa918491602090910190620001cd565b50916020019190600101906200018a565b50620001c992915062000226565b5090565b82805482825590600052602060002090810192821562000218579160200282015b8281111562000218578251829062000207908262000693565b5091602001919060010190620001ee565b50620001c992915062000247565b80821115620001c95760006200023d828262000268565b5060010162000226565b80821115620001c95760006200025e82826200028b565b5060010162000247565b508054600082559060005260206000209081019062000288919062000247565b50565b508054620002999062000604565b6000825580601f10620002aa575050565b601f0160209004906000526020600020908101906200028891905b80821115620001c95760008155600101620002c5565b80516001600160a01b0381168114620002f357600080fd5b919050565b634e487b7160e01b600052604160045260246000fd5b604051601f8201601f191681016001600160401b0381118282101715620003395762000339620002f8565b604052919050565b600082601f8301126200035357600080fd5b81516001600160401b038111156200036f576200036f620002f8565b602062000385601f8301601f191682016200030e565b82815285828487010111156200039a57600080fd5b60005b83811015620003ba5785810183015182820184015282016200039d565b83811115620003cc5760008385840101525b5095945050505050565b60006001600160401b03821115620003f257620003f2620002f8565b5060051b60200190565b600082601f8301126200040e57600080fd5b81516020620004276200042183620003d6565b6200030e565b82815260059290921b840181019181810190868411156200044757600080fd5b8286015b84811015620005065780516001600160401b03808211156200046c57600080fd5b818901915089603f8301126200048157600080fd5b85820151620004946200042182620003d6565b81815260059190911b830160400190878101908c831115620004b557600080fd5b604085015b83811015620004f357805185811115620004d357600080fd5b620004e48f6040838a010162000341565b845250918901918901620004ba565b508752505050928401925083016200044b565b509695505050505050565b60008060008060008060c087890312156200052b57600080fd5b6200053687620002db565b60208801519096506001600160401b03808211156200055457600080fd5b620005628a838b0162000341565b965060408901519150808211156200057957600080fd5b620005878a838b0162000341565b955060608901519150808211156200059e57600080fd5b620005ac8a838b0162000341565b94506080890151915080821115620005c357600080fd5b620005d18a838b0162000341565b935060a0890151915080821115620005e857600080fd5b50620005f789828a01620003fc565b9150509295509295509295565b600181811c908216806200061957607f821691505b6020821081036200063a57634e487b7160e01b600052602260045260246000fd5b50919050565b601f8211156200068e57600081815260208120601f850160051c81016020861015620006695750805b601f850160051c820191505b818110156200068a5782815560010162000675565b5050505b505050565b81516001600160401b03811115620006af57620006af620002f8565b620006c781620006c0845462000604565b8462000640565b602080601f831160018114620006ff5760008415620006e65750858301515b600019600386901b1c1916600185901b1785556200068a565b600085815260208120601f198616915b8281101562000730578886015182559484019460019091019084016200070f565b50858210156200074f5787850151600019600388901b60f8161c191681555b5050505050600190811b01905550565b612616806200076f6000396000f3fe608060405234801561001057600080fd5b50600436106101cf5760003560e01c806395d89b4111610104578063c87b56dd116100a2578063e0205b8b11610071578063e0205b8b146103d4578063e985e9c5146103dc578063edbc20a014610418578063f516b4221461042b57600080fd5b8063c87b56dd14610386578063cc181ca814610399578063d0def521146103ac578063dbd638f6146103bf57600080fd5b8063af640d0f116100de578063af640d0f14610342578063b88d4fde1461034b578063bf937bfc1461035e578063c1b313c11461037157600080fd5b806395d89b41146103145780639d856bdc1461031c578063a22cb4651461032f57600080fd5b806342842e0e11610171578063666e1b391161014b578063666e1b39146102b857806370a08231146102e6578063723a2130146102f957806389afcb441461030157600080fd5b806342842e0e1461028a5780635aef7de61461029d5780636352211e146102a557600080fd5b8063095ea7b3116101ad578063095ea7b31461023c57806321ecfa8d1461025157806323b872dd14610264578063296f7ec81461027757600080fd5b806301ffc9a7146101d457806306fdde03146101fc578063081812fc14610211575b600080fd5b6101e76101e2366004611c29565b610433565b60405190151581526020015b60405180910390f35b610204610485565b6040516101f39190611c9e565b61022461021f366004611cb1565b610517565b6040516001600160a01b0390911681526020016101f3565b61024f61024a366004611ce6565b61053e565b005b61020461025f366004611d10565b610658565b61024f610272366004611d32565b61071d565b61024f610285366004611f54565b61074e565b61024f610298366004611d32565b6107dc565b6102046107f7565b6102246102b3366004611cb1565b610804565b6102d86102c6366004612026565b60096020526000908152604090205481565b6040519081526020016101f3565b6102d86102f4366004612026565b610864565b6102046108ea565b61024f61030f366004612026565b6108f7565b61020461097d565b600854610224906001600160a01b031681565b61024f61033d366004612041565b61098c565b6102d8600a5481565b61024f61035936600461207d565b61099b565b61024f61036c366004612026565b6109d3565b610379610a6d565b6040516101f391906120f9565b610204610394366004611cb1565b610b8d565b600754610224906001600160a01b031681565b61024f6103ba36600461219e565b610c9d565b6103c7610da5565b6040516101f39190612221565b61024f610ffb565b6101e76103ea36600461226e565b6001600160a01b03918216600090815260056020908152604080832093909416825291909152205460ff1690565b61024f610426366004612026565b611055565b6102046110e2565b60006001600160e01b031982166380ac58cd60e01b148061046457506001600160e01b03198216635b5e139f60e01b145b8061047f57506301ffc9a760e01b6001600160e01b03198316145b92915050565b606060008054610494906122a1565b80601f01602080910402602001604051908101604052809291908181526020018280546104c0906122a1565b801561050d5780601f106104e25761010080835404028352916020019161050d565b820191906000526020600020905b8154815290600101906020018083116104f057829003601f168201915b5050505050905090565b6000610522826110ef565b506000908152600460205260409020546001600160a01b031690565b600061054982610804565b9050806001600160a01b0316836001600160a01b0316036105bb5760405162461bcd60e51b815260206004820152602160248201527f4552433732313a20617070726f76616c20746f2063757272656e74206f776e656044820152603960f91b60648201526084015b60405180910390fd5b336001600160a01b03821614806105d757506105d781336103ea565b6106495760405162461bcd60e51b815260206004820152603d60248201527f4552433732313a20617070726f76652063616c6c6572206973206e6f7420746f60448201527f6b656e206f776e6572206f7220617070726f76656420666f7220616c6c00000060648201526084016105b2565b6106538383611151565b505050565b600e828154811061066857600080fd5b90600052602060002001818154811061068057600080fd5b9060005260206000200160009150915050805461069c906122a1565b80601f01602080910402602001604051908101604052809291908181526020018280546106c8906122a1565b80156107155780601f106106ea57610100808354040283529160200191610715565b820191906000526020600020905b8154815290600101906020018083116106f857829003601f168201915b505050505081565b61072733826111bf565b6107435760405162461bcd60e51b81526004016105b2906122db565b61065383838361123d565b6007546001600160a01b031633148061077157506008546001600160a01b031633145b61078d5760405162461bcd60e51b81526004016105b290612328565b60016107998682612393565b50600b6107a68582612393565b50600c6107b38482612393565b50600d6107c08382612393565b5080516107d490600e906020840190611a96565b505050505050565b6106538383836040518060200160405280600081525061099b565b600b805461069c906122a1565b6000818152600260205260408120546001600160a01b03168061047f5760405162461bcd60e51b8152602060048201526018602482015277115490cdcc8c4e881a5b9d985b1a59081d1bdad95b88125160421b60448201526064016105b2565b60006001600160a01b0382166108ce5760405162461bcd60e51b815260206004820152602960248201527f4552433732313a2061646472657373207a65726f206973206e6f7420612076616044820152683634b21037bbb732b960b91b60648201526084016105b2565b506001600160a01b031660009081526003602052604090205490565b600c805461069c906122a1565b600061090282610864565b116109405760405162461bcd60e51b815260206004820152600e60248201526d4e4f545f464f4c4c4f57494e472160901b60448201526064016105b2565b6001600160a01b038116600090815260096020526040902054610962816113f3565b506001600160a01b0316600090815260096020526040812055565b606060018054610494906122a1565b610997338383611433565b5050565b6109a533836111bf565b6109c15760405162461bcd60e51b81526004016105b2906122db565b6109cd84848484611501565b50505050565b6007546001600160a01b03163314610a185760405162461bcd60e51b81526020600482015260086024820152674e4f545f4b494e4760c01b60448201526064016105b2565b600780546001600160a01b0319166001600160a01b0383169081179091556040519081527f6cd8d790853c0b38da6686db770a36ba2c38653bf63c343f3bb93c738c2f89da906020015b60405180910390a150565b6060600e805480602002602001604051908101604052809291908181526020016000905b82821015610b8457838290600052602060002001805480602002602001604051908101604052809291908181526020016000905b82821015610b71578382906000526020600020018054610ae4906122a1565b80601f0160208091040260200160405190810160405280929190818152602001828054610b10906122a1565b8015610b5d5780601f10610b3257610100808354040283529160200191610b5d565b820191906000526020600020905b815481529060010190602001808311610b4057829003601f168201915b505050505081526020019060010190610ac5565b5050505081526020019060010190610a91565b50505050905090565b6060610b98826110ef565b60008281526006602052604081208054610bb1906122a1565b80601f0160208091040260200160405190810160405280929190818152602001828054610bdd906122a1565b8015610c2a5780601f10610bff57610100808354040283529160200191610c2a565b820191906000526020600020905b815481529060010190602001808311610c0d57829003601f168201915b505050505090506000610c4860408051602081019091526000815290565b90508051600003610c5a575092915050565b815115610c8c578082604051602001610c74929190612453565b60405160208183030381529060405292505050919050565b610c9584611534565b949350505050565b6007546001600160a01b0316331480610cc057506008546001600160a01b031633145b610cdc5760405162461bcd60e51b81526004016105b290612328565b610ce583610864565b15610d255760405162461bcd60e51b815260206004820152601060248201526f414c52454144595f464f4c4c4f57532160801b60448201526064016105b2565b610d3183600a546115a8565b610d73600a5483838080601f0160208091040260200160405190810160405280939291908181526020018383808284376000920191909152506116f692505050565b600a80546001600160a01b038516600090815260096020526040812082905590610d9c90612498565b90915550505050565b610dad611af3565b604051806080016040528060018054610dc5906122a1565b80601f0160208091040260200160405190810160405280929190818152602001828054610df1906122a1565b8015610e3e5780601f10610e1357610100808354040283529160200191610e3e565b820191906000526020600020905b815481529060010190602001808311610e2157829003601f168201915b50505050508152602001600b8054610e55906122a1565b80601f0160208091040260200160405190810160405280929190818152602001828054610e81906122a1565b8015610ece5780601f10610ea357610100808354040283529160200191610ece565b820191906000526020600020905b815481529060010190602001808311610eb157829003601f168201915b50505050508152602001600d8054610ee5906122a1565b80601f0160208091040260200160405190810160405280929190818152602001828054610f11906122a1565b8015610f5e5780601f10610f3357610100808354040283529160200191610f5e565b820191906000526020600020905b815481529060010190602001808311610f4157829003601f168201915b50505050508152602001600c8054610f75906122a1565b80601f0160208091040260200160405190810160405280929190818152602001828054610fa1906122a1565b8015610fee5780601f10610fc357610100808354040283529160200191610fee565b820191906000526020600020905b815481529060010190602001808311610fd157829003601f168201915b5050505050815250905090565b6007546001600160a01b031633146110405760405162461bcd60e51b81526020600482015260086024820152674e4f545f4b494e4760c01b60448201526064016105b2565b600a6000815461104f90612498565b90915550565b6007546001600160a01b031633148061107857506008546001600160a01b031633145b6110945760405162461bcd60e51b81526004016105b290612328565b600880546001600160a01b0319166001600160a01b0383169081179091556040519081527f4f83afdba2ebb153ebc1defcc8dc7ba9fc5ad01c30203863693b05807712a62b90602001610a62565b600d805461069c906122a1565b6000818152600260205260409020546001600160a01b031661114e5760405162461bcd60e51b8152602060048201526018602482015277115490cdcc8c4e881a5b9d985b1a59081d1bdad95b88125160421b60448201526064016105b2565b50565b600081815260046020526040902080546001600160a01b0319166001600160a01b038416908117909155819061118682610804565b6001600160a01b03167f8c5be1e5ebec7d5bd14f71427d1e84f3dd0314c0f7b2291e5b200ac8c7c3b92560405160405180910390a45050565b6000806111cb83610804565b9050806001600160a01b0316846001600160a01b0316148061121257506001600160a01b0380821660009081526005602090815260408083209388168352929052205460ff165b80610c955750836001600160a01b031661122b84610517565b6001600160a01b031614949350505050565b826001600160a01b031661125082610804565b6001600160a01b0316146112b45760405162461bcd60e51b815260206004820152602560248201527f4552433732313a207472616e736665722066726f6d20696e636f72726563742060448201526437bbb732b960d91b60648201526084016105b2565b6001600160a01b0382166113165760405162461bcd60e51b8152602060048201526024808201527f4552433732313a207472616e7366657220746f20746865207a65726f206164646044820152637265737360e01b60648201526084016105b2565b611321838383611789565b600081815260046020908152604080832080546001600160a01b03191690556001600160a01b0386168352600390915281208054600192906113649084906124b1565b90915550506001600160a01b03821660009081526003602052604081208054600192906113929084906124c8565b909155505060008181526002602052604080822080546001600160a01b0319166001600160a01b0386811691821790925591518493918716917fddf252ad1be2c89b69c2b068fc378daa952ba7f163c4a11628f55a4df523b3ef91a4505050565b6113fc816117de565b60008181526006602052604090208054611415906122a1565b15905061114e57600081815260066020526040812061114e91611b1a565b816001600160a01b0316836001600160a01b0316036114945760405162461bcd60e51b815260206004820152601960248201527f4552433732313a20617070726f766520746f2063616c6c65720000000000000060448201526064016105b2565b6001600160a01b03838116600081815260056020908152604080832094871680845294825291829020805460ff191686151590811790915591519182527f17307eab39ab6107e8899845ad3d59bd9653f200f220920489ca2b5937696c31910160405180910390a3505050565b61150c84848461123d565b61151884848484611894565b6109cd5760405162461bcd60e51b81526004016105b2906124e0565b606061153f826110ef565b600061155660408051602081019091526000815290565b9050600081511161157657604051806020016040528060008152506115a1565b8061158084611995565b604051602001611591929190612453565b6040516020818303038152906040525b9392505050565b6001600160a01b0382166115fe5760405162461bcd60e51b815260206004820181905260248201527f4552433732313a206d696e7420746f20746865207a65726f206164647265737360448201526064016105b2565b6000818152600260205260409020546001600160a01b0316156116635760405162461bcd60e51b815260206004820152601c60248201527f4552433732313a20746f6b656e20616c7265616479206d696e7465640000000060448201526064016105b2565b61166f60008383611789565b6001600160a01b03821660009081526003602052604081208054600192906116989084906124c8565b909155505060008181526002602052604080822080546001600160a01b0319166001600160a01b03861690811790915590518392907fddf252ad1be2c89b69c2b068fc378daa952ba7f163c4a11628f55a4df523b3ef908290a45050565b6000828152600260205260409020546001600160a01b03166117715760405162461bcd60e51b815260206004820152602e60248201527f45524337323155524953746f726167653a2055524920736574206f66206e6f6e60448201526d32bc34b9ba32b73a103a37b5b2b760911b60648201526084016105b2565b60008281526006602052604090206106538282612393565b6001600160a01b03821615806117a657506001600160a01b038316155b6106535760405162461bcd60e51b815260206004820152600960248201526814d3d5531093d5539160ba1b60448201526064016105b2565b60006117e982610804565b90506117f781600084611789565b600082815260046020908152604080832080546001600160a01b03191690556001600160a01b03841683526003909152812080546001929061183a9084906124b1565b909155505060008281526002602052604080822080546001600160a01b0319169055518391906001600160a01b038416907fddf252ad1be2c89b69c2b068fc378daa952ba7f163c4a11628f55a4df523b3ef908390a45050565b60006001600160a01b0384163b1561198a57604051630a85bd0160e11b81526001600160a01b0385169063150b7a02906118d8903390899088908890600401612532565b6020604051808303816000875af1925050508015611913575060408051601f3d908101601f191682019092526119109181019061256f565b60015b611970573d808015611941576040519150601f19603f3d011682016040523d82523d6000602084013e611946565b606091505b5080516000036119685760405162461bcd60e51b81526004016105b2906124e0565b805181602001fd5b6001600160e01b031916630a85bd0160e11b149050610c95565b506001949350505050565b6060816000036119bc5750506040805180820190915260018152600360fc1b602082015290565b8160005b81156119e657806119d081612498565b91506119df9050600a836125a2565b91506119c0565b60008167ffffffffffffffff811115611a0157611a01611d6e565b6040519080825280601f01601f191660200182016040528015611a2b576020820181803683370190505b5090505b8415610c9557611a406001836124b1565b9150611a4d600a866125b6565b611a589060306124c8565b60f81b818381518110611a6d57611a6d6125ca565b60200101906001600160f81b031916908160001a905350611a8f600a866125a2565b9450611a2f565b828054828255906000526020600020908101928215611ae3579160200282015b82811115611ae35782518051611ad3918491602090910190611b54565b5091602001919060010190611ab6565b50611aef929150611ba6565b5090565b60405180608001604052806004905b6060815260200190600190039081611b025790505090565b508054611b26906122a1565b6000825580601f10611b36575050565b601f01602090049060005260206000209081019061114e9190611bc3565b828054828255906000526020600020908101928215611b9a579160200282015b82811115611b9a5782518290611b8a9082612393565b5091602001919060010190611b74565b50611aef929150611bd8565b80821115611aef576000611bba8282611bf5565b50600101611ba6565b5b80821115611aef5760008155600101611bc4565b80821115611aef576000611bec8282611b1a565b50600101611bd8565b508054600082559060005260206000209081019061114e9190611bd8565b6001600160e01b03198116811461114e57600080fd5b600060208284031215611c3b57600080fd5b81356115a181611c13565b60005b83811015611c61578181015183820152602001611c49565b838111156109cd5750506000910152565b60008151808452611c8a816020860160208601611c46565b601f01601f19169290920160200192915050565b6020815260006115a16020830184611c72565b600060208284031215611cc357600080fd5b5035919050565b80356001600160a01b0381168114611ce157600080fd5b919050565b60008060408385031215611cf957600080fd5b611d0283611cca565b946020939093013593505050565b60008060408385031215611d2357600080fd5b50508035926020909101359150565b600080600060608486031215611d4757600080fd5b611d5084611cca565b9250611d5e60208501611cca565b9150604084013590509250925092565b634e487b7160e01b600052604160045260246000fd5b604051601f8201601f1916810167ffffffffffffffff81118282101715611dad57611dad611d6e565b604052919050565b600067ffffffffffffffff831115611dcf57611dcf611d6e565b611de2601f8401601f1916602001611d84565b9050828152838383011115611df657600080fd5b828260208301376000602084830101529392505050565b600082601f830112611e1e57600080fd5b6115a183833560208501611db5565b600067ffffffffffffffff821115611e4757611e47611d6e565b5060051b60200190565b600082601f830112611e6257600080fd5b81356020611e77611e7283611e2d565b611d84565b82815260059290921b84018101918181019086841115611e9657600080fd5b8286015b84811015611f4957803567ffffffffffffffff80821115611eba57600080fd5b818901915089603f830112611ece57600080fd5b85820135611ede611e7282611e2d565b81815260059190911b830160400190878101908c831115611efe57600080fd5b604085015b83811015611f3757803585811115611f1a57600080fd5b611f298f6040838a0101611e0d565b845250918901918901611f03565b50875250505092840192508301611e9a565b509695505050505050565b600080600080600060a08688031215611f6c57600080fd5b853567ffffffffffffffff80821115611f8457600080fd5b611f9089838a01611e0d565b96506020880135915080821115611fa657600080fd5b611fb289838a01611e0d565b95506040880135915080821115611fc857600080fd5b611fd489838a01611e0d565b94506060880135915080821115611fea57600080fd5b611ff689838a01611e0d565b9350608088013591508082111561200c57600080fd5b5061201988828901611e51565b9150509295509295909350565b60006020828403121561203857600080fd5b6115a182611cca565b6000806040838503121561205457600080fd5b61205d83611cca565b91506020830135801515811461207257600080fd5b809150509250929050565b6000806000806080858703121561209357600080fd5b61209c85611cca565b93506120aa60208601611cca565b925060408501359150606085013567ffffffffffffffff8111156120cd57600080fd5b8501601f810187136120de57600080fd5b6120ed87823560208401611db5565b91505092959194509250565b6000602080830181845280855180835260408601915060059250604081841b8701018488016000805b8481101561218f57898403603f19018652825180518086529089019089860190808a1b87018b01855b8281101561217957601f19898303018452612167828651611c72565b948d0194938d0193915060010161214b565b50988b0198965050509288019250600101612122565b50919998505050505050505050565b6000806000604084860312156121b357600080fd5b6121bc84611cca565b9250602084013567ffffffffffffffff808211156121d957600080fd5b818601915086601f8301126121ed57600080fd5b8135818111156121fc57600080fd5b87602082850101111561220e57600080fd5b6020830194508093505050509250925092565b602080825260009060a0830183820185845b600481101561226257601f19878503018352612250848351611c72565b93509184019190840190600101612233565b50919695505050505050565b6000806040838503121561228157600080fd5b61228a83611cca565b915061229860208401611cca565b90509250929050565b600181811c908216806122b557607f821691505b6020821081036122d557634e487b7160e01b600052602260045260246000fd5b50919050565b6020808252602d908201527f4552433732313a2063616c6c6572206973206e6f7420746f6b656e206f776e6560408201526c1c881bdc88185c1c1c9bdd9959609a1b606082015260800190565b6020808252600b908201526a09c9ea8be9a9e9c82a486960ab1b604082015260600190565b601f82111561065357600081815260208120601f850160051c810160208610156123745750805b601f850160051c820191505b818110156107d457828155600101612380565b815167ffffffffffffffff8111156123ad576123ad611d6e565b6123c1816123bb84546122a1565b8461234d565b602080601f8311600181146123f657600084156123de5750858301515b600019600386901b1c1916600185901b1785556107d4565b600085815260208120601f198616915b8281101561242557888601518255948401946001909101908401612406565b50858210156124435787850151600019600388901b60f8161c191681555b5050505050600190811b01905550565b60008351612465818460208801611c46565b835190830190612479818360208801611c46565b01949350505050565b634e487b7160e01b600052601160045260246000fd5b6000600182016124aa576124aa612482565b5060010190565b6000828210156124c3576124c3612482565b500390565b600082198211156124db576124db612482565b500190565b60208082526032908201527f4552433732313a207472616e7366657220746f206e6f6e20455243373231526560408201527131b2b4bb32b91034b6b83632b6b2b73a32b960711b606082015260800190565b6001600160a01b038581168252841660208201526040810183905260806060820181905260009061256590830184611c72565b9695505050505050565b60006020828403121561258157600080fd5b81516115a181611c13565b634e487b7160e01b600052601260045260246000fd5b6000826125b1576125b161258c565b500490565b6000826125c5576125c561258c565b500690565b634e487b7160e01b600052603260045260246000fdfea2646970667358221220bb092c2ca562b6475d486710d57df3f2ba5b473b4391482de1192f83f71d5e8b64736f6c634300080f0033",
    "linkReferences": {}
  },
  "methodIdentifiers": {
    "annointKing(address)": "bf937bfc",
    "annointQueen(address)": "edbc20a0",
    "approve(address,uint256)": "095ea7b3",
    "avatar()": "5aef7de6",
    "balanceOf(address)": "70a08231",
    "banner()": "723a2130",
    "bio()": "f516b422",
    "burn(address)": "89afcb44",
    "changeProfile(string,string,string,string,string[][])": "296f7ec8",
    "getApproved(uint256)": "081812fc",
    "id()": "af640d0f",
    "incrementID()": "e0205b8b",
    "isApprovedForAll(address,address)": "e985e9c5",
    "king()": "cc181ca8",
    "links(uint256,uint256)": "21ecfa8d",
    "mint(address,string)": "d0def521",
    "name()": "06fdde03",
    "owner(address)": "666e1b39",
    "ownerOf(uint256)": "6352211e",
    "queen()": "9d856bdc",
    "safeTransferFrom(address,address,uint256)": "42842e0e",
    "safeTransferFrom(address,address,uint256,bytes)": "b88d4fde",
    "setApprovalForAll(address,bool)": "a22cb465",
    "supportsInterface(bytes4)": "01ffc9a7",
    "symbol()": "95d89b41",
    "tokenURI(uint256)": "c87b56dd",
    "transferFrom(address,address,uint256)": "23b872dd",
    "viewLinks()": "c1b313c1",
    "viewProfile()": "dbd638f6"
  },
  "id": 16
}