{
  "abi": [
    {
      "inputs": [],
      "stateMutability": "nonpayable",
      "type": "constructor"
    },
    {
      "anonymous": false,
      "inputs": [
        {
          "indexed": true,
          "internalType": "address",
          "name": "user_address",
          "type": "address"
        },
        {
          "indexed": true,
          "internalType": "address",
          "name": "phase_address",
          "type": "address"
        },
        {
          "indexed": false,
          "internalType": "string",
          "name": "username",
          "type": "string"
        }
      ],
      "name": "ChangedProfile",
      "type": "event"
    },
    {
      "anonymous": false,
      "inputs": [
        {
          "indexed": true,
          "internalType": "address",
          "name": "user_address",
          "type": "address"
        },
        {
          "indexed": true,
          "internalType": "address",
          "name": "phase_address",
          "type": "address"
        },
        {
          "indexed": false,
          "internalType": "string",
          "name": "username",
          "type": "string"
        }
      ],
      "name": "CreatedProfile",
      "type": "event"
    },
    {
      "anonymous": false,
      "inputs": [
        {
          "indexed": true,
          "internalType": "address",
          "name": "follower",
          "type": "address"
        },
        {
          "indexed": true,
          "internalType": "address",
          "name": "following",
          "type": "address"
        },
        {
          "indexed": true,
          "internalType": "address",
          "name": "phase_profile",
          "type": "address"
        }
      ],
      "name": "Follow",
      "type": "event"
    },
    {
      "anonymous": false,
      "inputs": [
        {
          "indexed": false,
          "internalType": "address",
          "name": "newKing",
          "type": "address"
        }
      ],
      "name": "NewKing",
      "type": "event"
    },
    {
      "anonymous": false,
      "inputs": [
        {
          "indexed": false,
          "internalType": "address",
          "name": "newQueen",
          "type": "address"
        }
      ],
      "name": "NewQueen",
      "type": "event"
    },
    {
      "anonymous": false,
      "inputs": [
        {
          "indexed": true,
          "internalType": "address",
          "name": "unfollower",
          "type": "address"
        },
        {
          "indexed": true,
          "internalType": "address",
          "name": "unfollowing",
          "type": "address"
        },
        {
          "indexed": true,
          "internalType": "address",
          "name": "phase_profile",
          "type": "address"
        }
      ],
      "name": "Unfollow",
      "type": "event"
    },
    {
      "inputs": [
        {
          "internalType": "address",
          "name": "newKing",
          "type": "address"
        }
      ],
      "name": "annointKing",
      "outputs": [],
      "stateMutability": "nonpayable",
      "type": "function"
    },
    {
      "inputs": [
        {
          "internalType": "address",
          "name": "newQueen",
          "type": "address"
        }
      ],
      "name": "annointQueen",
      "outputs": [],
      "stateMutability": "nonpayable",
      "type": "function"
    },
    {
      "inputs": [
        {
          "internalType": "address",
          "name": "_address",
          "type": "address"
        },
        {
          "internalType": "string",
          "name": "username",
          "type": "string"
        },
        {
          "internalType": "string",
          "name": "avatar",
          "type": "string"
        },
        {
          "internalType": "string",
          "name": "banner",
          "type": "string"
        },
        {
          "internalType": "string",
          "name": "bio",
          "type": "string"
        },
        {
          "internalType": "string[][]",
          "name": "links",
          "type": "string[][]"
        }
      ],
      "name": "changeProfile",
      "outputs": [],
      "stateMutability": "nonpayable",
      "type": "function"
    },
    {
      "inputs": [
        {
          "internalType": "address",
          "name": "_address",
          "type": "address"
        },
        {
          "internalType": "string",
          "name": "username",
          "type": "string"
        },
        {
          "internalType": "string",
          "name": "avatar",
          "type": "string"
        },
        {
          "internalType": "string",
          "name": "banner",
          "type": "string"
        },
        {
          "internalType": "string",
          "name": "bio",
          "type": "string"
        },
        {
          "internalType": "string[][]",
          "name": "links",
          "type": "string[][]"
        }
      ],
      "name": "createProfile",
      "outputs": [],
      "stateMutability": "nonpayable",
      "type": "function"
    },
    {
      "inputs": [
        {
          "internalType": "address",
          "name": "follower",
          "type": "address"
        },
        {
          "internalType": "address",
          "name": "following",
          "type": "address"
        },
        {
          "internalType": "string",
          "name": "metadata",
          "type": "string"
        }
      ],
      "name": "follow",
      "outputs": [],
      "stateMutability": "nonpayable",
      "type": "function"
    },
    {
      "inputs": [
        {
          "internalType": "address",
          "name": "_address",
          "type": "address"
        }
      ],
      "name": "incrementPhaseID",
      "outputs": [],
      "stateMutability": "nonpayable",
      "type": "function"
    },
    {
      "inputs": [
        {
          "internalType": "address",
          "name": "follower",
          "type": "address"
        },
        {
          "internalType": "address",
          "name": "following",
          "type": "address"
        }
      ],
      "name": "isFollowing",
      "outputs": [
        {
          "internalType": "bool",
          "name": "",
          "type": "bool"
        }
      ],
      "stateMutability": "view",
      "type": "function"
    },
    {
      "inputs": [],
      "name": "king",
      "outputs": [
        {
          "internalType": "address",
          "name": "",
          "type": "address"
        }
      ],
      "stateMutability": "view",
      "type": "function"
    },
    {
      "inputs": [
        {
          "internalType": "address",
          "name": "",
          "type": "address"
        }
      ],
      "name": "phase",
      "outputs": [
        {
          "internalType": "contract Phase",
          "name": "",
          "type": "address"
        }
      ],
      "stateMutability": "view",
      "type": "function"
    },
    {
      "inputs": [
        {
          "internalType": "address",
          "name": "_address",
          "type": "address"
        }
      ],
      "name": "phaseID",
      "outputs": [
        {
          "internalType": "uint256",
          "name": "token_id",
          "type": "uint256"
        }
      ],
      "stateMutability": "view",
      "type": "function"
    },
    {
      "inputs": [
        {
          "internalType": "uint256",
          "name": "",
          "type": "uint256"
        }
      ],
      "name": "phases",
      "outputs": [
        {
          "internalType": "address",
          "name": "",
          "type": "address"
        }
      ],
      "stateMutability": "view",
      "type": "function"
    },
    {
      "inputs": [],
      "name": "queen",
      "outputs": [
        {
          "internalType": "address",
          "name": "",
          "type": "address"
        }
      ],
      "stateMutability": "view",
      "type": "function"
    },
    {
      "inputs": [
        {
          "internalType": "address",
          "name": "unfollower",
          "type": "address"
        },
        {
          "internalType": "address",
          "name": "unfollowing",
          "type": "address"
        }
      ],
      "name": "removeFollow",
      "outputs": [],
      "stateMutability": "nonpayable",
      "type": "function"
    },
    {
      "inputs": [
        {
          "internalType": "string",
          "name": "",
          "type": "string"
        }
      ],
      "name": "usernames",
      "outputs": [
        {
          "internalType": "address",
          "name": "",
          "type": "address"
        }
      ],
      "stateMutability": "view",
      "type": "function"
    },
    {
      "inputs": [
        {
          "internalType": "address",
          "name": "_address",
          "type": "address"
        }
      ],
      "name": "viewLinks",
      "outputs": [
        {
          "internalType": "string[][]",
          "name": "links",
          "type": "string[][]"
        }
      ],
      "stateMutability": "view",
      "type": "function"
    },
    {
      "inputs": [],
      "name": "viewPhases",
      "outputs": [
        {
          "internalType": "address[]",
          "name": "",
          "type": "address[]"
        }
      ],
      "stateMutability": "view",
      "type": "function"
    },
    {
      "inputs": [
        {
          "internalType": "address",
          "name": "_address",
          "type": "address"
        }
      ],
      "name": "viewProfile",
      "outputs": [
        {
          "internalType": "string[4]",
          "name": "bio_info",
          "type": "string[4]"
        }
      ],
      "stateMutability": "view",
      "type": "function"
    }
  ],
  "bytecode": {
    "object": "0x608060405234801561001057600080fd5b5060008054336001600160a01b031991821681178355600180549092169091556040519081527f6cd8d790853c0b38da6686db770a36ba2c38653bf63c343f3bb93c738c2f89da9060200160405180910390a16040516001600160a01b03821681527f4f83afdba2ebb153ebc1defcc8dc7ba9fc5ad01c30203863693b05807712a62b9060200160405180910390a1506149cf806100af6000396000f3fe60806040523480156200001157600080fd5b5060043610620001215760003560e01c806399ec3a4211620000af578063bf937bfc116200007a578063bf937bfc14620002d0578063cc181ca814620002e7578063dc23403114620002fb578063e74b7fe01462000312578063edbc20a0146200032957600080fd5b806399ec3a4214620002465780639d856bdc146200026e578063aaee301f1462000282578063b8150eb214620002b957600080fd5b806332a13c0111620000f057806332a13c0114620001a857806346e0814114620001ce57806348792c8014620001f45780634b3a2a6a146200021a57600080fd5b8063027a3767146200012657806305df5a56146200013f57806308fcef4014620001615780632e37eef61462000178575b600080fd5b6200013d6200013736600462001031565b62000340565b005b62000149620004e3565b60405162000158919062001069565b60405180910390f35b6200013d62000172366004620010b8565b62000547565b6200018f620001893660046200114f565b620006f1565b6040516001600160a01b03909116815260200162000158565b620001bf620001b936600462001169565b6200071c565b60405162000158919062001290565b620001e5620001df36600462001169565b620007a4565b604051620001589190620012a5565b6200020b6200020536600462001169565b6200082d565b60405190815260200162000158565b6200018f6200022b36600462001169565b6003602052600090815260409020546001600160a01b031681565b6200025d6200025736600462001031565b620008ab565b604051901515815260200162000158565b6001546200018f906001600160a01b031681565b6200018f62000293366004620013f3565b80516020818301810180516002825292820191909301209152546001600160a01b031681565b6200013d620002ca3660046200156b565b62000938565b6200013d620002e136600462001169565b62000b91565b6000546200018f906001600160a01b031681565b6200013d6200030c36600462001169565b62000c13565b6200013d620003233660046200156b565b62000cad565b6200013d6200033a36600462001169565b62000f2f565b6000546001600160a01b03163314620003765760405162461bcd60e51b81526004016200036d906200165e565b60405180910390fd5b6001600160a01b038181166000908152600360205260408082205490516370a0823160e01b8152858416600482015292169182906370a0823190602401602060405180830381865afa158015620003d1573d6000803e3d6000fd5b505050506040513d601f19601f82011682018060405250810190620003f7919062001680565b11620004375760405162461bcd60e51b815260206004820152600e60248201526d4e4f545f464f4c4c4f57494e472160901b60448201526064016200036d565b60405163226bf2d160e21b81526001600160a01b0384811660048301528216906389afcb4490602401600060405180830381600087803b1580156200047b57600080fd5b505af115801562000490573d6000803e3d6000fd5b50505050806001600160a01b0316826001600160a01b0316846001600160a01b03167ff03361a4fb660f14ee00aa4d559565931ce88b06192553dbefa6093765d0d7f760405160405180910390a4505050565b606060048054806020026020016040519081016040528092919081815260200182805480156200053d57602002820191906000526020600020905b81546001600160a01b031681526001909101906020018083116200051e575b5050505050905090565b6000546001600160a01b03163314620005745760405162461bcd60e51b81526004016200036d906200165e565b6001600160a01b03838116600090815260036020526040908190205490516370a0823160e01b8152868316600482015291169081906370a0823190602401602060405180830381865afa158015620005d0573d6000803e3d6000fd5b505050506040513d601f19601f82011682018060405250810190620005f6919062001680565b156200063a5760405162461bcd60e51b8152602060048201526012602482015271414c52454144595f464f4c4c4f57494e472160701b60448201526064016200036d565b60405163d0def52160e01b81526001600160a01b0382169063d0def521906200066c908890879087906004016200169a565b600060405180830381600087803b1580156200068757600080fd5b505af11580156200069c573d6000803e3d6000fd5b50505050806001600160a01b0316846001600160a01b0316866001600160a01b03167fab0593080333635d8643b7029091e23800fd41ad633feb50250d233e8051d35860405160405180910390a45050505050565b600481815481106200070257600080fd5b6000918252602090912001546001600160a01b0316905081565b6001600160a01b0380821660009081526003602052604080822054815163c1b313c160e01b81529151606094919091169263c1b313c192600480820193918290030181865afa15801562000774573d6000803e3d6000fd5b505050506040513d6000823e601f3d908101601f191682016040526200079e919081019062001726565b92915050565b620007ae62000fde565b6001600160a01b03808316600090815260036020526040808220548151636deb1c7b60e11b8152915193169263dbd638f6926004808401939192918290030181865afa15801562000803573d6000803e3d6000fd5b505050506040513d6000823e601f3d908101601f191682016040526200079e919081019062001863565b6001600160a01b03808216600090815260036020908152604080832054815163af640d0f60e01b815291519394169263af640d0f926004808401939192918290030181865afa15801562000885573d6000803e3d6000fd5b505050506040513d601f19601f820116820180604052508101906200079e919062001680565b6001600160a01b038181166000908152600360205260408082205490516370a0823160e01b8152858416600482015291921690829082906370a0823190602401602060405180830381865afa15801562000909573d6000803e3d6000fd5b505050506040513d601f19601f820116820180604052508101906200092f919062001680565b11949350505050565b6000546001600160a01b03163314620009655760405162461bcd60e51b81526004016200036d906200165e565b6000855111620009aa5760405162461bcd60e51b815260206004820152600f60248201526e454d5054595f555345524e414d452160881b60448201526064016200036d565b6001600160a01b038087166000908152600360205260408082205481516395d89b4160e01b8152915193169260029184916395d89b419160048082019287929091908290030181865afa15801562000a06573d6000803e3d6000fd5b505050506040513d6000823e601f3d908101601f1916820160405262000a30919081019062001909565b60405162000a3f919062001942565b90815260405190819003602001812080546001600160a01b03939093166001600160a01b03199093169290921790915560009060029062000a8290899062001942565b908152604051908190036020019020546001600160a01b03161462000adc5760405162461bcd60e51b815260206004820152600f60248201526e555345524e414d455f54414b454e2160881b60448201526064016200036d565b60405163052defd960e31b81526001600160a01b0382169063296f7ec89062000b12908990899089908990899060040162001960565b600060405180830381600087803b15801562000b2d57600080fd5b505af115801562000b42573d6000803e3d6000fd5b505050508660028760405162000b59919062001942565b90815260405190819003602001902080546001600160a01b03929092166001600160a01b031990921691909117905550505050505050565b6000546001600160a01b0316331462000bbe5760405162461bcd60e51b81526004016200036d906200165e565b600080546001600160a01b0319166001600160a01b0383169081179091556040519081527f6cd8d790853c0b38da6686db770a36ba2c38653bf63c343f3bb93c738c2f89da906020015b60405180910390a150565b6000546001600160a01b0316331462000c405760405162461bcd60e51b81526004016200036d906200165e565b6001600160a01b0380821660009081526003602052604080822054815163e0205b8b60e01b8152915193169263e0205b8b9260048084019391929182900301818387803b15801562000c9157600080fd5b505af115801562000ca6573d6000803e3d6000fd5b5050505050565b6000546001600160a01b0316331462000cda5760405162461bcd60e51b81526004016200036d906200165e565b6001600160a01b03868116600090815260036020526040902054161562000d395760405162461bcd60e51b815260206004820152601260248201527150484153455f414c52454144595f4d41444560701b60448201526064016200036d565b600085511162000d7e5760405162461bcd60e51b815260206004820152600f60248201526e454d5054595f555345524e414d452160881b60448201526064016200036d565b60006001600160a01b031660028660405162000d9b919062001942565b908152604051908190036020019020546001600160a01b03161462000df55760405162461bcd60e51b815260206004820152600f60248201526e555345524e414d455f54414b454e2160881b60448201526064016200036d565b600086868686868660405162000e0b9062001006565b62000e1c96959493929190620019d7565b604051809103906000f08015801562000e39573d6000803e3d6000fd5b506001600160a01b038881166000908152600360205260409081902080546001600160a01b0319169284169290921790915551909150879060029062000e8190899062001942565b90815260405190819003602001812080546001600160a01b039384166001600160a01b031991821617909155600480546001810182556000919091527f8a35acfbc15ff81a39ae7d344fd709f28e8600b4aa8c65c6b64bfe7fe36bd19b0180548b851692168217905591831691907f0f6310052d2ac588005e40e349ed01b8ee7bf637b6e21aad6876cd28c541b9ba9062000f1e908a9062001a60565b60405180910390a350505050505050565b6000546001600160a01b031633148062000f5357506001546001600160a01b031633145b62000f8f5760405162461bcd60e51b815260206004820152600b60248201526a09c9ea8be9a9e9c82a486960ab1b60448201526064016200036d565b600180546001600160a01b0319166001600160a01b0383169081179091556040519081527f4f83afdba2ebb153ebc1defcc8dc7ba9fc5ad01c30203863693b05807712a62b9060200162000c08565b60405180608001604052806004905b606081526020019060019003908162000fed5790505090565b612f248062001a7683390190565b80356001600160a01b03811681146200102c57600080fd5b919050565b600080604083850312156200104557600080fd5b620010508362001014565b9150620010606020840162001014565b90509250929050565b6020808252825182820181905260009190848201906040850190845b81811015620010ac5783516001600160a01b03168352928401929184019160010162001085565b50909695505050505050565b60008060008060608587031215620010cf57600080fd5b620010da8562001014565b9350620010ea6020860162001014565b9250604085013567ffffffffffffffff808211156200110857600080fd5b818701915087601f8301126200111d57600080fd5b8135818111156200112d57600080fd5b8860208285010111156200114057600080fd5b95989497505060200194505050565b6000602082840312156200116257600080fd5b5035919050565b6000602082840312156200117c57600080fd5b620011878262001014565b9392505050565b60005b83811015620011ab57818101518382015260200162001191565b83811115620011bb576000848401525b50505050565b60008151808452620011db8160208601602086016200118e565b601f01601f19169290920160200192915050565b60008282518085526020808601955060058183821b8501018287016000805b868110156200128157601f1988850381018c5283518051808752908801908887019080891b88018a01865b828110156200126957858a830301845262001256828651620011c1565b948c0194938c0193915060010162001239565b509e8a019e975050509387019350506001016200120e565b50919998505050505050505050565b602081526000620011876020830184620011ef565b602080825260009060a0830183820185845b6004811015620012ea57601f19878503018352620012d7848351620011c1565b93509184019190840190600101620012b7565b50919695505050505050565b634e487b7160e01b600052604160045260246000fd5b6040516080810167ffffffffffffffff81118282101715620013325762001332620012f6565b60405290565b604051601f8201601f1916810167ffffffffffffffff81118282101715620013645762001364620012f6565b604052919050565b600067ffffffffffffffff821115620013895762001389620012f6565b50601f01601f191660200190565b600082601f830112620013a957600080fd5b8135620013c0620013ba826200136c565b62001338565b818152846020838601011115620013d657600080fd5b816020850160208301376000918101602001919091529392505050565b6000602082840312156200140657600080fd5b813567ffffffffffffffff8111156200141e57600080fd5b6200142c8482850162001397565b949350505050565b600067ffffffffffffffff821115620014515762001451620012f6565b5060051b60200190565b600082601f8301126200146d57600080fd5b8135602062001480620013ba8362001434565b82815260059290921b84018101918181019086841115620014a057600080fd5b8286015b848110156200156057803567ffffffffffffffff80821115620014c657600080fd5b818901915089603f830112620014db57600080fd5b85820135620014ee620013ba8262001434565b81815260059190911b830160400190878101908c8311156200150f57600080fd5b604085015b838110156200154d578035858111156200152d57600080fd5b6200153e8f6040838a010162001397565b84525091890191890162001514565b50875250505092840192508301620014a4565b509695505050505050565b60008060008060008060c087890312156200158557600080fd5b620015908762001014565b9550602087013567ffffffffffffffff80821115620015ae57600080fd5b620015bc8a838b0162001397565b96506040890135915080821115620015d357600080fd5b620015e18a838b0162001397565b95506060890135915080821115620015f857600080fd5b620016068a838b0162001397565b945060808901359150808211156200161d57600080fd5b6200162b8a838b0162001397565b935060a08901359150808211156200164257600080fd5b506200165189828a016200145b565b9150509295509295509295565b6020808252600890820152674e4f545f4b494e4760c01b604082015260600190565b6000602082840312156200169357600080fd5b5051919050565b6001600160a01b03841681526040602082018190528101829052818360608301376000818301606090810191909152601f909201601f1916010192915050565b600082601f830112620016ec57600080fd5b8151620016fd620013ba826200136c565b8181528460208386010111156200171357600080fd5b6200142c8260208301602087016200118e565b6000602082840312156200173957600080fd5b815167ffffffffffffffff808211156200175257600080fd5b818401915084601f8301126200176757600080fd5b815162001778620013ba8262001434565b8082825260208201915060208360051b8601019250878311156200179b57600080fd5b602085015b838110156200185757805185811115620017b957600080fd5b8601603f81018a13620017cb57600080fd5b6020810151620017df620013ba8262001434565b81815260059190911b82016040019060208101908c8311156200180157600080fd5b604084015b83811015620018405780518a8111156200181f57600080fd5b620018308f604083890101620016da565b8452506020928301920162001806565b5086525050602093840193919091019050620017a0565b50979650505050505050565b600060208083850312156200187757600080fd5b825167ffffffffffffffff808211156200189057600080fd5b818501915085601f830112620018a557600080fd5b620018af6200130c565b806080840188811115620018c257600080fd5b845b81811015620018fb57805185811115620018de5760008081fd5b620018ec8b828901620016da565b855250928601928601620018c4565b509098975050505050505050565b6000602082840312156200191c57600080fd5b815167ffffffffffffffff8111156200193457600080fd5b6200142c84828501620016da565b60008251620019568184602087016200118e565b9190910192915050565b60a0815260006200197560a0830188620011c1565b8281036020840152620019898188620011c1565b905082810360408401526200199f8187620011c1565b90508281036060840152620019b58186620011c1565b90508281036080840152620019cb8185620011ef565b98975050505050505050565b6001600160a01b038716815260c060208201819052600090620019fd90830188620011c1565b828103604084015262001a118188620011c1565b9050828103606084015262001a278187620011c1565b9050828103608084015262001a3d8186620011c1565b905082810360a084015262001a538185620011ef565b9998505050505050505050565b602081526000620011876020830184620011c156fe60806040526001600a553480156200001657600080fd5b5060405162002f2438038062002f24833981016040819052620000399162000511565b60408051808201909152600d81526c50686173652050726f66696c6560981b602082015286908660006200006e838262000693565b5060016200007d828262000693565b505060078054336001600160a01b03199182168117909255600880549091166001600160a01b0385161790556040519081527f6cd8d790853c0b38da6686db770a36ba2c38653bf63c343f3bb93c738c2f89da915060200160405180910390a16040516001600160a01b03821681527f4f83afdba2ebb153ebc1defcc8dc7ba9fc5ad01c30203863693b05807712a62b9060200160405180910390a150600b62000128858262000693565b50600c62000137848262000693565b50600d62000146838262000693565b5080516200015c90600e90602084019062000169565b505050505050506200075f565b828054828255906000526020600020908101928215620001bb579160200282015b82811115620001bb5782518051620001aa918491602090910190620001cd565b50916020019190600101906200018a565b50620001c992915062000226565b5090565b82805482825590600052602060002090810192821562000218579160200282015b8281111562000218578251829062000207908262000693565b5091602001919060010190620001ee565b50620001c992915062000247565b80821115620001c95760006200023d828262000268565b5060010162000226565b80821115620001c95760006200025e82826200028b565b5060010162000247565b508054600082559060005260206000209081019062000288919062000247565b50565b508054620002999062000604565b6000825580601f10620002aa575050565b601f0160209004906000526020600020908101906200028891905b80821115620001c95760008155600101620002c5565b80516001600160a01b0381168114620002f357600080fd5b919050565b634e487b7160e01b600052604160045260246000fd5b604051601f8201601f191681016001600160401b0381118282101715620003395762000339620002f8565b604052919050565b600082601f8301126200035357600080fd5b81516001600160401b038111156200036f576200036f620002f8565b602062000385601f8301601f191682016200030e565b82815285828487010111156200039a57600080fd5b60005b83811015620003ba5785810183015182820184015282016200039d565b83811115620003cc5760008385840101525b5095945050505050565b60006001600160401b03821115620003f257620003f2620002f8565b5060051b60200190565b600082601f8301126200040e57600080fd5b81516020620004276200042183620003d6565b6200030e565b82815260059290921b840181019181810190868411156200044757600080fd5b8286015b84811015620005065780516001600160401b03808211156200046c57600080fd5b818901915089603f8301126200048157600080fd5b85820151620004946200042182620003d6565b81815260059190911b830160400190878101908c831115620004b557600080fd5b604085015b83811015620004f357805185811115620004d357600080fd5b620004e48f6040838a010162000341565b845250918901918901620004ba565b508752505050928401925083016200044b565b509695505050505050565b60008060008060008060c087890312156200052b57600080fd5b6200053687620002db565b60208801519096506001600160401b03808211156200055457600080fd5b620005628a838b0162000341565b965060408901519150808211156200057957600080fd5b620005878a838b0162000341565b955060608901519150808211156200059e57600080fd5b620005ac8a838b0162000341565b94506080890151915080821115620005c357600080fd5b620005d18a838b0162000341565b935060a0890151915080821115620005e857600080fd5b50620005f789828a01620003fc565b9150509295509295509295565b600181811c908216806200061957607f821691505b6020821081036200063a57634e487b7160e01b600052602260045260246000fd5b50919050565b601f8211156200068e57600081815260208120601f850160051c81016020861015620006695750805b601f850160051c820191505b818110156200068a5782815560010162000675565b5050505b505050565b81516001600160401b03811115620006af57620006af620002f8565b620006c781620006c0845462000604565b8462000640565b602080601f831160018114620006ff5760008415620006e65750858301515b600019600386901b1c1916600185901b1785556200068a565b600085815260208120601f198616915b8281101562000730578886015182559484019460019091019084016200070f565b50858210156200074f5787850151600019600388901b60f8161c191681555b5050505050600190811b01905550565b6127b5806200076f6000396000f3fe608060405234801561001057600080fd5b50600436106101e55760003560e01c806395d89b411161010f578063cc181ca8116100a2578063e43fdb6c11610071578063e43fdb6c14610405578063e985e9c51461041a578063edbc20a014610456578063f516b4221461046957600080fd5b8063cc181ca8146103c2578063d0def521146103d5578063dbd638f6146103e8578063e0205b8b146103fd57600080fd5b8063b88d4fde116100de578063b88d4fde14610374578063bf937bfc14610387578063c1b313c11461039a578063c87b56dd146103af57600080fd5b806395d89b411461033d5780639d856bdc14610345578063a22cb46514610358578063af640d0f1461036b57600080fd5b8063296f7ec811610187578063666e1b3911610156578063666e1b39146102e157806370a082311461030f578063723a21301461032257806389afcb441461032a57600080fd5b8063296f7ec8146102a057806342842e0e146102b35780635aef7de6146102c65780636352211e146102ce57600080fd5b8063095ea7b3116101c3578063095ea7b3146102525780630d80fefd1461026757806321ecfa8d1461027a57806323b872dd1461028d57600080fd5b806301ffc9a7146101ea57806306fdde0314610212578063081812fc14610227575b600080fd5b6101fd6101f8366004611da6565b610471565b60405190151581526020015b60405180910390f35b61021a6104c3565b6040516102099190611e1b565b61023a610235366004611e2e565b610555565b6040516001600160a01b039091168152602001610209565b610265610260366004611e63565b61057c565b005b61021a610275366004611e2e565b610696565b61021a610288366004611e8d565b610742565b61026561029b366004611eaf565b610786565b6102656102ae3660046120d1565b6107b7565b6102656102c1366004611eaf565b610845565b61021a610860565b61023a6102dc366004611e2e565b61086d565b6103016102ef3660046121a3565b60096020526000908152604090205481565b604051908152602001610209565b61030161031d3660046121a3565b6108cd565b61021a610953565b6102656103383660046121a3565b610960565b61021a6109e6565b60085461023a906001600160a01b031681565b6102656103663660046121be565b6109f5565b610301600a5481565b6102656103823660046121fa565b610a04565b6102656103953660046121a3565b610a3c565b6103a2610ad6565b60405161020991906122c8565b61021a6103bd366004611e2e565b610bf6565b60075461023a906001600160a01b031681565b6102656103e336600461232a565b610d06565b6103f0610e12565b60405161020991906123ad565b610265611068565b61040d6110c2565b60405161020991906123fa565b6101fd61042836600461240d565b6001600160a01b03918216600090815260056020908152604080832093909416825291909152205460ff1690565b6102656104643660046121a3565b6111d2565b61021a61125f565b60006001600160e01b031982166380ac58cd60e01b14806104a257506001600160e01b03198216635b5e139f60e01b145b806104bd57506301ffc9a760e01b6001600160e01b03198316145b92915050565b6060600080546104d290612440565b80601f01602080910402602001604051908101604052809291908181526020018280546104fe90612440565b801561054b5780601f106105205761010080835404028352916020019161054b565b820191906000526020600020905b81548152906001019060200180831161052e57829003601f168201915b5050505050905090565b60006105608261126c565b506000908152600460205260409020546001600160a01b031690565b60006105878261086d565b9050806001600160a01b0316836001600160a01b0316036105f95760405162461bcd60e51b815260206004820152602160248201527f4552433732313a20617070726f76616c20746f2063757272656e74206f776e656044820152603960f91b60648201526084015b60405180910390fd5b336001600160a01b038216148061061557506106158133610428565b6106875760405162461bcd60e51b815260206004820152603d60248201527f4552433732313a20617070726f76652063616c6c6572206973206e6f7420746f60448201527f6b656e206f776e6572206f7220617070726f76656420666f7220616c6c00000060648201526084016105f0565b61069183836112ce565b505050565b600f81815481106106a657600080fd5b9060005260206000200160009150905080546106c190612440565b80601f01602080910402602001604051908101604052809291908181526020018280546106ed90612440565b801561073a5780601f1061070f5761010080835404028352916020019161073a565b820191906000526020600020905b81548152906001019060200180831161071d57829003601f168201915b505050505081565b600e828154811061075257600080fd5b90600052602060002001818154811061076a57600080fd5b906000526020600020016000915091505080546106c190612440565b610790338261133c565b6107ac5760405162461bcd60e51b81526004016105f09061247a565b6106918383836113ba565b6007546001600160a01b03163314806107da57506008546001600160a01b031633145b6107f65760405162461bcd60e51b81526004016105f0906124c7565b60016108028682612532565b50600b61080f8582612532565b50600c61081c8482612532565b50600d6108298382612532565b50805161083d90600e906020840190611c13565b505050505050565b61069183838360405180602001604052806000815250610a04565b600b80546106c190612440565b6000818152600260205260408120546001600160a01b0316806104bd5760405162461bcd60e51b8152602060048201526018602482015277115490cdcc8c4e881a5b9d985b1a59081d1bdad95b88125160421b60448201526064016105f0565b60006001600160a01b0382166109375760405162461bcd60e51b815260206004820152602960248201527f4552433732313a2061646472657373207a65726f206973206e6f7420612076616044820152683634b21037bbb732b960b91b60648201526084016105f0565b506001600160a01b031660009081526003602052604090205490565b600c80546106c190612440565b600061096b826108cd565b116109a95760405162461bcd60e51b815260206004820152600e60248201526d4e4f545f464f4c4c4f57494e472160901b60448201526064016105f0565b6001600160a01b0381166000908152600960205260409020546109cb81611570565b506001600160a01b0316600090815260096020526040812055565b6060600180546104d290612440565b610a003383836115b0565b5050565b610a0e338361133c565b610a2a5760405162461bcd60e51b81526004016105f09061247a565b610a368484848461167e565b50505050565b6007546001600160a01b03163314610a815760405162461bcd60e51b81526020600482015260086024820152674e4f545f4b494e4760c01b60448201526064016105f0565b600780546001600160a01b0319166001600160a01b0383169081179091556040519081527f6cd8d790853c0b38da6686db770a36ba2c38653bf63c343f3bb93c738c2f89da906020015b60405180910390a150565b6060600e805480602002602001604051908101604052809291908181526020016000905b82821015610bed57838290600052602060002001805480602002602001604051908101604052809291908181526020016000905b82821015610bda578382906000526020600020018054610b4d90612440565b80601f0160208091040260200160405190810160405280929190818152602001828054610b7990612440565b8015610bc65780601f10610b9b57610100808354040283529160200191610bc6565b820191906000526020600020905b815481529060010190602001808311610ba957829003601f168201915b505050505081526020019060010190610b2e565b5050505081526020019060010190610afa565b50505050905090565b6060610c018261126c565b60008281526006602052604081208054610c1a90612440565b80601f0160208091040260200160405190810160405280929190818152602001828054610c4690612440565b8015610c935780601f10610c6857610100808354040283529160200191610c93565b820191906000526020600020905b815481529060010190602001808311610c7657829003601f168201915b505050505090506000610cb160408051602081019091526000815290565b90508051600003610cc3575092915050565b815115610cf5578082604051602001610cdd9291906125f2565b60405160208183030381529060405292505050919050565b610cfe846116b1565b949350505050565b6007546001600160a01b0316331480610d2957506008546001600160a01b031633145b610d455760405162461bcd60e51b81526004016105f0906124c7565b610d4e836108cd565b15610d8e5760405162461bcd60e51b815260206004820152601060248201526f414c52454144595f464f4c4c4f57532160801b60448201526064016105f0565b600a60008154610d9d90612637565b90915550600a54610daf908490611725565b610df1600a5483838080601f01602080910402602001604051908101604052809392919081815260200183838082843760009201919091525061187392505050565b5050600a546001600160a01b03909116600090815260096020526040902055565b610e1a611c70565b604051806080016040528060018054610e3290612440565b80601f0160208091040260200160405190810160405280929190818152602001828054610e5e90612440565b8015610eab5780601f10610e8057610100808354040283529160200191610eab565b820191906000526020600020905b815481529060010190602001808311610e8e57829003601f168201915b50505050508152602001600b8054610ec290612440565b80601f0160208091040260200160405190810160405280929190818152602001828054610eee90612440565b8015610f3b5780601f10610f1057610100808354040283529160200191610f3b565b820191906000526020600020905b815481529060010190602001808311610f1e57829003601f168201915b50505050508152602001600d8054610f5290612440565b80601f0160208091040260200160405190810160405280929190818152602001828054610f7e90612440565b8015610fcb5780601f10610fa057610100808354040283529160200191610fcb565b820191906000526020600020905b815481529060010190602001808311610fae57829003601f168201915b50505050508152602001600c8054610fe290612440565b80601f016020809104026020016040519081016040528092919081815260200182805461100e90612440565b801561105b5780601f106110305761010080835404028352916020019161105b565b820191906000526020600020905b81548152906001019060200180831161103e57829003601f168201915b5050505050815250905090565b6007546001600160a01b031633146110ad5760405162461bcd60e51b81526020600482015260086024820152674e4f545f4b494e4760c01b60448201526064016105f0565b600a600081546110bc90612637565b90915550565b6007546060906001600160a01b03163314806110e857506008546001600160a01b031633145b6111045760405162461bcd60e51b81526004016105f0906124c7565b600f805480602002602001604051908101604052809291908181526020016000905b82821015610bed57838290600052602060002001805461114590612440565b80601f016020809104026020016040519081016040528092919081815260200182805461117190612440565b80156111be5780601f10611193576101008083540402835291602001916111be565b820191906000526020600020905b8154815290600101906020018083116111a157829003601f168201915b505050505081526020019060010190611126565b6007546001600160a01b03163314806111f557506008546001600160a01b031633145b6112115760405162461bcd60e51b81526004016105f0906124c7565b600880546001600160a01b0319166001600160a01b0383169081179091556040519081527f4f83afdba2ebb153ebc1defcc8dc7ba9fc5ad01c30203863693b05807712a62b90602001610acb565b600d80546106c190612440565b6000818152600260205260409020546001600160a01b03166112cb5760405162461bcd60e51b8152602060048201526018602482015277115490cdcc8c4e881a5b9d985b1a59081d1bdad95b88125160421b60448201526064016105f0565b50565b600081815260046020526040902080546001600160a01b0319166001600160a01b03841690811790915581906113038261086d565b6001600160a01b03167f8c5be1e5ebec7d5bd14f71427d1e84f3dd0314c0f7b2291e5b200ac8c7c3b92560405160405180910390a45050565b6000806113488361086d565b9050806001600160a01b0316846001600160a01b0316148061138f57506001600160a01b0380821660009081526005602090815260408083209388168352929052205460ff165b80610cfe5750836001600160a01b03166113a884610555565b6001600160a01b031614949350505050565b826001600160a01b03166113cd8261086d565b6001600160a01b0316146114315760405162461bcd60e51b815260206004820152602560248201527f4552433732313a207472616e736665722066726f6d20696e636f72726563742060448201526437bbb732b960d91b60648201526084016105f0565b6001600160a01b0382166114935760405162461bcd60e51b8152602060048201526024808201527f4552433732313a207472616e7366657220746f20746865207a65726f206164646044820152637265737360e01b60648201526084016105f0565b61149e838383611906565b600081815260046020908152604080832080546001600160a01b03191690556001600160a01b0386168352600390915281208054600192906114e1908490612650565b90915550506001600160a01b038216600090815260036020526040812080546001929061150f908490612667565b909155505060008181526002602052604080822080546001600160a01b0319166001600160a01b0386811691821790925591518493918716917fddf252ad1be2c89b69c2b068fc378daa952ba7f163c4a11628f55a4df523b3ef91a4505050565b6115798161195b565b6000818152600660205260409020805461159290612440565b1590506112cb5760008181526006602052604081206112cb91611c97565b816001600160a01b0316836001600160a01b0316036116115760405162461bcd60e51b815260206004820152601960248201527f4552433732313a20617070726f766520746f2063616c6c65720000000000000060448201526064016105f0565b6001600160a01b03838116600081815260056020908152604080832094871680845294825291829020805460ff191686151590811790915591519182527f17307eab39ab6107e8899845ad3d59bd9653f200f220920489ca2b5937696c31910160405180910390a3505050565b6116898484846113ba565b61169584848484611a11565b610a365760405162461bcd60e51b81526004016105f09061267f565b60606116bc8261126c565b60006116d360408051602081019091526000815290565b905060008151116116f3576040518060200160405280600081525061171e565b806116fd84611b12565b60405160200161170e9291906125f2565b6040516020818303038152906040525b9392505050565b6001600160a01b03821661177b5760405162461bcd60e51b815260206004820181905260248201527f4552433732313a206d696e7420746f20746865207a65726f206164647265737360448201526064016105f0565b6000818152600260205260409020546001600160a01b0316156117e05760405162461bcd60e51b815260206004820152601c60248201527f4552433732313a20746f6b656e20616c7265616479206d696e7465640000000060448201526064016105f0565b6117ec60008383611906565b6001600160a01b0382166000908152600360205260408120805460019290611815908490612667565b909155505060008181526002602052604080822080546001600160a01b0319166001600160a01b03861690811790915590518392907fddf252ad1be2c89b69c2b068fc378daa952ba7f163c4a11628f55a4df523b3ef908290a45050565b6000828152600260205260409020546001600160a01b03166118ee5760405162461bcd60e51b815260206004820152602e60248201527f45524337323155524953746f726167653a2055524920736574206f66206e6f6e60448201526d32bc34b9ba32b73a103a37b5b2b760911b60648201526084016105f0565b60008281526006602052604090206106918282612532565b6001600160a01b038216158061192357506001600160a01b038316155b6106915760405162461bcd60e51b815260206004820152600960248201526814d3d5531093d5539160ba1b60448201526064016105f0565b60006119668261086d565b905061197481600084611906565b600082815260046020908152604080832080546001600160a01b03191690556001600160a01b0384168352600390915281208054600192906119b7908490612650565b909155505060008281526002602052604080822080546001600160a01b0319169055518391906001600160a01b038416907fddf252ad1be2c89b69c2b068fc378daa952ba7f163c4a11628f55a4df523b3ef908390a45050565b60006001600160a01b0384163b15611b0757604051630a85bd0160e11b81526001600160a01b0385169063150b7a0290611a559033908990889088906004016126d1565b6020604051808303816000875af1925050508015611a90575060408051601f3d908101601f19168201909252611a8d9181019061270e565b60015b611aed573d808015611abe576040519150601f19603f3d011682016040523d82523d6000602084013e611ac3565b606091505b508051600003611ae55760405162461bcd60e51b81526004016105f09061267f565b805181602001fd5b6001600160e01b031916630a85bd0160e11b149050610cfe565b506001949350505050565b606081600003611b395750506040805180820190915260018152600360fc1b602082015290565b8160005b8115611b635780611b4d81612637565b9150611b5c9050600a83612741565b9150611b3d565b60008167ffffffffffffffff811115611b7e57611b7e611eeb565b6040519080825280601f01601f191660200182016040528015611ba8576020820181803683370190505b5090505b8415610cfe57611bbd600183612650565b9150611bca600a86612755565b611bd5906030612667565b60f81b818381518110611bea57611bea612769565b60200101906001600160f81b031916908160001a905350611c0c600a86612741565b9450611bac565b828054828255906000526020600020908101928215611c60579160200282015b82811115611c605782518051611c50918491602090910190611cd1565b5091602001919060010190611c33565b50611c6c929150611d23565b5090565b60405180608001604052806004905b6060815260200190600190039081611c7f5790505090565b508054611ca390612440565b6000825580601f10611cb3575050565b601f0160209004906000526020600020908101906112cb9190611d40565b828054828255906000526020600020908101928215611d17579160200282015b82811115611d175782518290611d079082612532565b5091602001919060010190611cf1565b50611c6c929150611d55565b80821115611c6c576000611d378282611d72565b50600101611d23565b5b80821115611c6c5760008155600101611d41565b80821115611c6c576000611d698282611c97565b50600101611d55565b50805460008255906000526020600020908101906112cb9190611d55565b6001600160e01b0319811681146112cb57600080fd5b600060208284031215611db857600080fd5b813561171e81611d90565b60005b83811015611dde578181015183820152602001611dc6565b83811115610a365750506000910152565b60008151808452611e07816020860160208601611dc3565b601f01601f19169290920160200192915050565b60208152600061171e6020830184611def565b600060208284031215611e4057600080fd5b5035919050565b80356001600160a01b0381168114611e5e57600080fd5b919050565b60008060408385031215611e7657600080fd5b611e7f83611e47565b946020939093013593505050565b60008060408385031215611ea057600080fd5b50508035926020909101359150565b600080600060608486031215611ec457600080fd5b611ecd84611e47565b9250611edb60208501611e47565b9150604084013590509250925092565b634e487b7160e01b600052604160045260246000fd5b604051601f8201601f1916810167ffffffffffffffff81118282101715611f2a57611f2a611eeb565b604052919050565b600067ffffffffffffffff831115611f4c57611f4c611eeb565b611f5f601f8401601f1916602001611f01565b9050828152838383011115611f7357600080fd5b828260208301376000602084830101529392505050565b600082601f830112611f9b57600080fd5b61171e83833560208501611f32565b600067ffffffffffffffff821115611fc457611fc4611eeb565b5060051b60200190565b600082601f830112611fdf57600080fd5b81356020611ff4611fef83611faa565b611f01565b82815260059290921b8401810191818101908684111561201357600080fd5b8286015b848110156120c657803567ffffffffffffffff8082111561203757600080fd5b818901915089603f83011261204b57600080fd5b8582013561205b611fef82611faa565b81815260059190911b830160400190878101908c83111561207b57600080fd5b604085015b838110156120b45780358581111561209757600080fd5b6120a68f6040838a0101611f8a565b845250918901918901612080565b50875250505092840192508301612017565b509695505050505050565b600080600080600060a086880312156120e957600080fd5b853567ffffffffffffffff8082111561210157600080fd5b61210d89838a01611f8a565b9650602088013591508082111561212357600080fd5b61212f89838a01611f8a565b9550604088013591508082111561214557600080fd5b61215189838a01611f8a565b9450606088013591508082111561216757600080fd5b61217389838a01611f8a565b9350608088013591508082111561218957600080fd5b5061219688828901611fce565b9150509295509295909350565b6000602082840312156121b557600080fd5b61171e82611e47565b600080604083850312156121d157600080fd5b6121da83611e47565b9150602083013580151581146121ef57600080fd5b809150509250929050565b6000806000806080858703121561221057600080fd5b61221985611e47565b935061222760208601611e47565b925060408501359150606085013567ffffffffffffffff81111561224a57600080fd5b8501601f8101871361225b57600080fd5b61226a87823560208401611f32565b91505092959194509250565b6000815180845260208085019450848260051b860182860160005b858110156122bb5783830389526122a9838351611def565b98850198925090840190600101612291565b5090979650505050505050565b6000602080830181845280855180835260408601915060408160051b870101925083870160005b8281101561231d57603f1988860301845261230b858351612276565b945092850192908501906001016122ef565b5092979650505050505050565b60008060006040848603121561233f57600080fd5b61234884611e47565b9250602084013567ffffffffffffffff8082111561236557600080fd5b818601915086601f83011261237957600080fd5b81358181111561238857600080fd5b87602082850101111561239a57600080fd5b6020830194508093505050509250925092565b602080825260009060a0830183820185845b60048110156123ee57601f198785030183526123dc848351611def565b935091840191908401906001016123bf565b50919695505050505050565b60208152600061171e6020830184612276565b6000806040838503121561242057600080fd5b61242983611e47565b915061243760208401611e47565b90509250929050565b600181811c9082168061245457607f821691505b60208210810361247457634e487b7160e01b600052602260045260246000fd5b50919050565b6020808252602d908201527f4552433732313a2063616c6c6572206973206e6f7420746f6b656e206f776e6560408201526c1c881bdc88185c1c1c9bdd9959609a1b606082015260800190565b6020808252600b908201526a09c9ea8be9a9e9c82a486960ab1b604082015260600190565b601f82111561069157600081815260208120601f850160051c810160208610156125135750805b601f850160051c820191505b8181101561083d5782815560010161251f565b815167ffffffffffffffff81111561254c5761254c611eeb565b6125608161255a8454612440565b846124ec565b602080601f831160018114612595576000841561257d5750858301515b600019600386901b1c1916600185901b17855561083d565b600085815260208120601f198616915b828110156125c4578886015182559484019460019091019084016125a5565b50858210156125e25787850151600019600388901b60f8161c191681555b5050505050600190811b01905550565b60008351612604818460208801611dc3565b835190830190612618818360208801611dc3565b01949350505050565b634e487b7160e01b600052601160045260246000fd5b60006001820161264957612649612621565b5060010190565b60008282101561266257612662612621565b500390565b6000821982111561267a5761267a612621565b500190565b60208082526032908201527f4552433732313a207472616e7366657220746f206e6f6e20455243373231526560408201527131b2b4bb32b91034b6b83632b6b2b73a32b960711b606082015260800190565b6001600160a01b038581168252841660208201526040810183905260806060820181905260009061270490830184611def565b9695505050505050565b60006020828403121561272057600080fd5b815161171e81611d90565b634e487b7160e01b600052601260045260246000fd5b6000826127505761275061272b565b500490565b6000826127645761276461272b565b500690565b634e487b7160e01b600052603260045260246000fdfea26469706673582212200908c79508b5847cdfd1c453a446fc10eff6f30d3832b75354279f1d4c73034464736f6c634300080f0033a2646970667358221220ca90f14eb8950298a9316acc4141e8a0451246a76fa96c301b20275c6e49abdf64736f6c634300080f0033",
    "linkReferences": {}
  },
  "methodIdentifiers": {
    "annointKing(address)": "bf937bfc",
    "annointQueen(address)": "edbc20a0",
    "changeProfile(address,string,string,string,string,string[][])": "b8150eb2",
    "createProfile(address,string,string,string,string,string[][])": "e74b7fe0",
    "follow(address,address,string)": "08fcef40",
    "incrementPhaseID(address)": "dc234031",
    "isFollowing(address,address)": "99ec3a42",
    "king()": "cc181ca8",
    "phase(address)": "4b3a2a6a",
    "phaseID(address)": "48792c80",
    "phases(uint256)": "2e37eef6",
    "queen()": "9d856bdc",
    "removeFollow(address,address)": "027a3767",
    "usernames(string)": "aaee301f",
    "viewLinks(address)": "32a13c01",
    "viewPhases()": "05df5a56",
    "viewProfile(address)": "46e08141"
  },
  "id": 15
}